:020000040800F2
:10000000100500206D0200088138000875330008D3
:100010007D3800082108000849420008000000005F
:100020000000000000000000000000007939000816
:100030002508000800000000853800087D39000808
:1000400089020008890200088902000800000000F7
:1000500089020008890200088902000800000000E7
:1000600089020008890200080000000089020008D7
:100070008902000889020008890200088902000834
:100080008902000889020008890200088902000824
:100090008902000889020008890200088902000814
:1000A0008902000889020008890200088902000804
:1000B00089020008890200088902000889020008F4
:1000C00089020008890200088902000889020008E4
:1000D0000000000089020008890200088902000867
:1000E00089020008890200088902000889020008C4
:1000F0008902000889020008890200080000000047
:100100000000000089020008890200088902000836
:100110008902000889020008890200088902000893
:100120008902000889020008890200088902000883
:100130008902000800000000000000008902000899
:10014000890200080000000000000000000000001C
:10015000000000000000000089020008000000000C
:100160000000000000000000890200088902000869
:10017000000000000000000000000000000000007F
:10018000000000000000000000000000000000006F
:10019000000000000000000000000000000000005F
:1001A0000000000000000000890200088902000829
:1001B00089020008890200088902000889020008F3
:1001C0008902000889020008000000000000000009
:1001D000000000000000000000000000890200088C
:1001E000890200080000000000000000000000007C
:1001F00000000000000000000000000000000000FF
:1002000000000000890200088902000800000000C8
:10021000000000008902000800000000000000004B
:10022000000000000000000000000000890200083B
:10023000890200080000000000000000000000002B
:10024000000000000000000000000000890200081B
:100250008902000889020008DFF80CD000F05EFA7D
:1002600000480047914600081005002007488047D5
:1002700007480047FEE7FEE7FEE7FEE7FEE7FEE78A
:10028000FEE7FEE7FEE7FEE7FEE70000493A00086A
:10029000590200082DE9F05F0546002092469B4672
:1002A00088460646814640241BE02846414647468C
:1002B000224600F06AF853465A46C01A914110D3BC
:1002C00011461846224600F051F82D1A67EB010836
:1002D0004F4622460120002100F048F817EB0009A4
:1002E0004E41201EA4F10104DFDC484631462A4677
:1002F0004346BDE8F09FD2B201E000F8012B491E51
:10030000FBD270470022F6E710B513460A460446B2
:100310001946FFF7F0FF204610BD00F0004230F014
:1003200000400AD0C10D01F56071C0F3160042EA29
:100330000151C20840071143704700200146704731
:1003400030B50B46014600202022012409E021FAA5
:1003500002F59D4205D303FA02F5491B04FA02F5A2
:100360002844151EA2F10102F1DC30BD202A04DB75
:10037000203A00FA02F1002070479140C2F12003B8
:1003800020FA03F3194390407047202A04DB203AF7
:1003900021FA02F00021704721FA02F3D040C2F1A5
:1003A000200291400843194670472DE9FE4F8046D0
:1003B00081EA0300C00F0C46009021F0004123F0B9
:1003C0000045B8EB0200A94105D2404621469046BF
:1003D0001C460B46024623F00040104347D0270D31
:1003E000C7F30A00C3F30A510290401A0190402853
:1003F0006BDAC3F3130040F4801B0098924620B1DF
:100400000023D2EB030A63EB0B0B01985946C0F1B2
:1004100040025046FFF7AAFF06460D465046594691
:10042000019A00F08DF910EB08006141002487EA81
:10043000115284EAE7731A4340D0009A62B3019ADA
:10044000012A4FEA075215DC001B61EB02014FF055
:10045000004202EA0752CDE90042001C41F580113A
:1004600032462B4600F08DF903B0BDE8F08F4046D0
:100470002146F9E7001B61EB0201001C41F58013E6
:1004800000185B412018A2F5001747EB030140EA72
:10049000D570B6196D4111E06D084FEA360645EA90
:1004A000C0754FEA0752001B61EB0201001C41F5C9
:1004B000801149084FEA30000019514132462B465D
:1004C00003B0BDE8F04F00F04DB9009801224000A4
:1004D0000023D0EB020263EBE073009821464FEA61
:1004E000E074B8EB000061EB0401E9E783F000433E
:1004F0005BE781F0004158E72DE9FE4F81EA0304F4
:1005000004F0004421F0004100944FF0000B23F070
:10051000004350EA01045ED052EA03045BD0C3F307
:100520000A54C1F30A552C44A4F2F3340194A0FBFD
:100530000254C1F3130141F48011C3F3130343F4D4
:10054000801301FB024400FB034E840A970A44EA2D
:10055000815447EA8357A4FB076802958D0A05FB7F
:1005600007854FEA932C04FB0C542705029D4FEAA4
:10057000065847EA1637B5EB08056EEB070C870EF1
:10058000920E47EA811742EA8312A7FB0201B6EBFB
:100590000B0164EB00042B0D43EA0C335E1844EBB3
:1005A0001C50DA465146E7FB0201C5F313044FEA3B
:1005B0000B3343EA14534FEA0432019C43EA060327
:1005C000A4F10C040294009CCDE900B400F0D9F829
:1005D00003B0BDE8F08F00200146F9E72DE9F04DAA
:1005E00081EA030404F0004B21F0004514464FF06B
:1005F000000A23F0004150EA050220D054EA01022B
:100600001DD0C5F30A570246C5F31303C1F3130007
:10061000C1F30A5640F4801543F48013A7EB060893
:10062000101BD64608F2FD3873EB050002D308F123
:10063000010801E092185B41B8F1000F03DA0020D5
:100640000146BDE8F08D00204FF480110646844637
:100650000EE0171B73EB050705D3121B63EB0503B5
:1006600006434CEA010C49084FEA300092185B41FE
:1006700050EA0107EDD152EA030012D082EA0400E9
:1006800083EA0501084305D0101BAB4106D20122C5
:10069000002306E000224FF0004302E06FF0010269
:1006A00053101AEB06004CEB085110EB0A0041EB1B
:1006B0000B01BDE8F04D00F055B8C1F30A52C1F38B
:1006C000130140F2FF3341F480119A4202DA002014
:1006D0000146704740F233439A42A2F2334202DCB1
:1006E0005242FFF752BEFFF741BE000030B5041E74
:1006F00071F1000404DB4FF00044404264EB01015F
:10070000141E73F1000405DB1C464FF000435242F7
:1007100063EB0403994208BF904230BD064C074D7D
:1007200006E0E06840F0010394E8070098471034C1
:10073000AC42F6D3FFF794FDD4510008F451000801
:10074000202A06DBCB17203A41FA02F043EAE07395
:1007500006E041FA02F3D040C2F120029140084382
:100760001946704710B5141E73F1000408DA401CD6
:1007700041F1000192185B411A4301D120F00100C0
:1007800010BD2DE9F04D92469B4611B1B1FA81F2B0
:1007900002E0B0FA80F220329046FFF7E7FD04460F
:1007A0000F4640EA0A0041EA0B0153465A46084305
:1007B00013D0114653EA010019D0C8F14002504647
:1007C000FFF7E3FD05460E46504659464246FFF701
:1007D000CDFD084305D0012004E020463946BDE8A0
:1007E000F08D0020054346EAE0762C4337430A9813
:1007F0006305E40AA0EB08000022FD0A44EA47541E
:100800000A3002D500200146E9E7010510196941C7
:10081000DDE9084500196941BDE8F04DA2E7000097
:10082000FEE700007047000072B600BFFEE7000060
:10083000B0B5044600F0E4F8054640F20400C2F208
:1008400000000078611C18BF044400BF00F0D8F815
:10085000401BA042FAD3B0BD2DE9F04F82B00C6826
:10086000002C00F0C38047F67F72C0F22F0202EA2C
:1008700090224FF001090092002200260027012556
:1008800001900FE0BCF1030F5FD100BF0C68083787
:1008900034FA05F305F1010506F1020602F104023E
:1008A00000F0A480A5F1010A09FA0AFE14EA0E0B71
:1008B000ECD0D1F804C04CF01004122C1FD16FF012
:1008C000030303EA5A0402F01C0300EB0409D9F8FD
:1008D00020C05846D1F810B00F2404FA03F80BF0EA
:1008E0000F042CEA080C04FA03F343EA0C038346D2
:1008F0000198C9F82030D1F804C04FF0010903680D
:100900000324B4406FEA0408A3430CF00304B4408A
:100910002343BCF1120F036017D809FA0CF313F04C
:10092000061FAFD08368CC6803EA0803B4402343B2
:10093000836043684FEA1C1423EA0E0304FA0AF4A6
:100940002343BCF1030F4360A0D0C3688C6803EA63
:100950000803B44023435FEACC04C36096D542F257
:1009600000082AF00303C4F2024808EB030EDEF885
:1009700060C007F018040F23A3402CEA030C009B6F
:1009800003FA04F44CEA0403CEF86030D8F800C04F
:10099000D1F804E04CEA0B035FEACE2458BF2CEAFE
:1009A0000B03C8F80030D8F804C05FEA8E234CEA85
:1009B0000B0458BF2CEA0B04C8F80440D8F884C0D4
:1009C0005FEA8E334CEA0B0458BF2CEA0B04C8F8DC
:1009D0008440D8F880C05FEACE334CEA0B0458BF9D
:1009E0002CEA0B04C8F8804050E700BF02B0BDE815
:1009F000F08F00001823002A08BF2823C150704739
:100A000040F20810C2F200000068704790F84120E0
:100A1000202A03D190F84020012A01D102207047FA
:100A2000242280F841200268136823F00103136038
:100A3000136823F48053136013681943116011681D
:100A400041F001011160202180F84110002180F85F
:100A5000401008467047000090F84120202A03D13A
:100A600090F84020012A01D102207047242280F80A
:100A700041200268136823F001031360136823F414
:100A8000706343EA01211160116841F001011160B6
:100A9000202180F84110002180F84010084670475E
:100AA000002804BF0120704710B5044690F84100AB
:100AB00028B9002084F84000204600F083FA242062
:100AC00084F8410094E80910E2680168012A21F0E5
:100AD0000101016023F070610161816821F400412E
:100AE000816003D14CF40041816009E04CF4044181
:100AF000022A816004D1416841F4006103E000BF33
:100B0000416821F400614160416804F1100341F043
:100B1000007141F400414160C16821F40041C160AD
:100B20000ECB114341EA0321E269C160216A1143FE
:100B30000160016841F00101016000202021606432
:100B400084F84110206384F8420010BD2DE9F04F75
:100B500081B0044690F8410020280DD1DDF828A08E
:100B6000BAF1000F0CD0DDF82CB0BBF1000F07D0AC
:100B700094F8400001280BD1022001B0BDE8F08FAD
:100B80004FF400706064012001B0BDE8F08F00BF39
:100B900001201D461746894684F84000FFF730FFC4
:100BA000216806468A69120447D422200C9A84F8E8
:100BB000410040204FF0000884F84200C4F844800F
:100BC000C4F824A0A4F82AB0C4F8348093466FF384
:100BD0009F29E8B24A6849F6000ACFF6004A49EA76
:100BE000004002EA0A02104400F500504860204626
:100BF0005946324602F032FDA8B9012D08D02068CE
:100C0000390A816220465946324602F027FD50B922
:100C10002068F9B281622046402100225B4600969E
:100C200002F05AFC50B384F84080012001B0BDE8C6
:100C3000F08F00BF88690004B7D5204619213246DD
:100C400002F09AFB00289ED1FFF7DAFE801B216894
:100C50001A28EFD388690004ECD5606C40F02000BE
:100C60006064202084F84100002084F8420084F869
:100C70004000012001B0BDE8F08F00BF608D5F46ED
:100C800040F2000BB0F5807FC0F2FF1B0AD3206852
:100C90000BF5105350F8041F4D4601EA0A02FF21DC
:100CA0000BE000BF618D2068CAB250F8043F49EAEA
:100CB000024203EA0A050BF592332A431A434FF026
:100CC000FF080AF58065026021850FE0618D2068CC
:100CD000218550F8042FC9B249EA01412A404FF05A
:100CE0000073114319430160608D98B320460421BD
:100CF00000223B46009602F0EFFB00287FF443AF52
:100D00002068616A406A0870606A218D0130606203
:100D1000481E2085618D01396185618D0029E3D0F0
:100D20000004E1D12046802100223B46009602F0DB
:100D3000D3FB00287FF427AF608DB0F5807FC5D34B
:100D40002068A4F8288050F8041F4A4629405B46D2
:100D5000C7E700BF20463946324602F03FFC002874
:100D60007FF411AF20682021C16142684EF6000374
:100D7000CFF600631A404260002084F8411084F8E6
:100D8000420084F8400001B0BDE8F08F2DE9F04F3B
:100D900081B0044690F8410020280DD1DDF828A04C
:100DA000BAF1000F0CD0DDF82CB0BBF1000F07D06A
:100DB00094F8400001280BD1022001B0BDE8F08F6B
:100DC0004FF400706064012001B0BDE8F08F00BFF7
:100DD00001201D461746894684F84000FFF710FEA3
:100DE000216806468A69120449D421200C9A84F8A5
:100DF000410040204FF0000884F84200C4F84480CD
:100E0000C4F824A0A4F82AB0C4F8348049F6004AF3
:100E100093466FF39F29E8B2CFF6004A4A6849EA41
:100E20000040AAF580631A40104440F0807040F4FE
:100E30000050486020465946324602F00FFCA8B9DF
:100E4000012D08D02068390A816220465946324671
:100E500002F004FC50B92068F9B28162204680217A
:100E600000225B46009602F037FB48B384F84080CE
:100E7000012001B0BDE8F08F88690004B5D5204697
:100E80001921324602F078FA00289CD1FFF7B8FD0C
:100E9000801B21681A28EFD388690004ECD5606CA8
:100EA00040F020006064202084F84100002084F895
:100EB000420084F84000012001B0BDE8F08F00BF7F
:100EC000608D40F20008B0F5807FC0F2FF1809D3B2
:100ED00020684B4650F8041F454601EA0A02FF21EC
:100EE0000BE000BF618D2068CAB250F8043F49EAA8
:100EF000024203EA0A034FF000751A432A43FF2710
:100F00000260218511E000BF618D2068218550F8C5
:100F1000042FC9B249EA014102EA0A024FF0007304
:100F2000114319430160608D80B320465946324613
:100F300002F094FB00287FF446AF606A226810F844
:100F4000011B91626062608D01386085208D0138DF
:100F50002085618D0029E6D00004E4D1204680215F
:100F600000225B46009602F0B7FA00287FF42BAF10
:100F7000608DB0F5807FC7D32068278550F8041FA7
:100F80004A4601EA0A014346CAE700BF20465946DD
:100F9000324602F023FB00287FF415AF20682021A1
:100FA000C16142684EF60003CFF600631A4042600A
:100FB000002084F8411084F8420084F8400001B019
:100FC000BDE8F08FB0B5AAB0044602A80830802171
:100FD000FFF798F9206845F20041C4F20001884209
:100FE00002D02AB0B0BD00BF4FF4005000240290E0
:100FF00002A8039400F082FE002818BFFFF714FC3B
:1010000040F68C45C4F20245286825A940F002004C
:101010002860286800F0020025902598C0202590BF
:101020001220CDE926040420299040F20040C4F2A9
:1010300002202894FFF710FC286940F40010286172
:10104000286900F40010019001982AB0B0BD00009A
:1010500040F20041C4F203010A68D2071CBF01201C
:1010600070470A6822F004021043086000207047AD
:1010700040F20041C4F20301086840F00102002080
:101080000A60704740F2040040F20811C2F200000A
:10109000C2F2000100780A6810440860704700003E
:1010A00080B5032000F0A6F801F046FB40F6204191
:1010B000C4F20241096845F2941201F00F01C0F632
:1010C0000002515CC84040F20C01C2F2000108600D
:1010D000042001F0EDFE0F2000F008F800281CBFEE
:1010E000012080BD00F058F8002080BD70B540F2AE
:1010F0000406C2F200063178E1B304464EF2100055
:10110000CEF200000068400710D401F02BFF022847
:101110001CD0012822D078BB40F20C00C2F20000A3
:10112000006831784FF4FA5207E000BF40F20C003B
:10113000C2F2000000684FF47A72B2FBF1F1B0FB2A
:10114000F1F001F0FDFEA8B91BE000BF30784FF4CC
:101150007A71B1FBF0F04FF4004106E030784FF4C3
:101160007A71B1FBF0F04FF4FA41B1FBF0F001F00D
:10117000E7FE30B1012070BD002001F0E1FE002843
:10118000F8D14FF0FF3021460022002500F006F88C
:101190002846746070BD00007047000010B54EF620
:1011A0000C5CCEF2000CDCF80030C3F3022E8EF0A3
:1011B0000704042C28BF0424BEF103034FF0FF3EB4
:1011C00038BF00230EFA04F4A14399400EFA03F34A
:1011D0009A43114300F00F02043A624409010C32B1
:1011E00000F16043B0F1FF3FC8BF03F564421170E6
:1011F00010BD00004EF60C51CEF200010A684FF609
:10120000FF031A4060F30A2242F0806040F0FD7054
:101210000860704710B540F6284CC4F2024CDCF868
:101220000CE0DCF80010DCF80020C2F30523DCF849
:101230000020DCF81040DBB3C4F3CC0402F0100251
:1012400004FB02F201F0030100EE102A0329B8EEBC
:10125000400A6FF35F2E31D0022935D001295CF8A6
:10126000281C49F20002C1F3C101C0F2D03222FAB7
:1012700001F101EE101A02EE103AB8EE411AB8EE82
:10128000422A9FED4F3A81EE021A02EE10EA20EE5A
:10129000030AB8EE422A30EE020AB7EE002A30EE18
:1012A000022A5CF8281C22EE010A89012CD527E0CD
:1012B0000021C0E90011816010BD00BF01EE103AAD
:1012C0009FED3E2A04E000BF01EE103A9FED3D2A5B
:1012D000B8EE411A82EE012A01EE10EA9FED383A8B
:1012E000B8EE411A20EE030A30EE010AB7EE001AFA
:1012F00030EE011A5CF8281C22EE010A890103D5A0
:10130000DCF80010C90307D4002101605CF8281C38
:10131000890118D41BE000BFDCF80C10B7EE002ADE
:10132000C1F3462101EE101AB8EE411A31EE021A4D
:1013300080EE011ABCEEC11A11EE101A01605CF8C1
:10134000281C890103D5DCF80010890302D4002190
:1013500012E000BFDCF80C10B7EE002AC1F3064122
:1013600001EE101AB8EE411A31EE021A80EE011A9F
:10137000BCEEC11A11EE101A41605CF8281C8901FC
:1013800044BFDCF800105FEA413103D400218160E2
:1013900010BD00BFDCF80C10B7EE002AC1F30661E7
:1013A00001EE101AB8EE411A31EE021A80EE010A6F
:1013B000BCEEC00A10EE101A816010BD20BCBE4BFE
:1013C000000000390024744A10B540F62C4CC4F2D9
:1013D000024CDCF810E0DCF80010DCF80020C2F36E
:1013E0000523DCF80020DCF81440DBB3C4F3CC04A4
:1013F00002F0100204FB02F201F0030100EE102AD9
:101400000329B8EE400A6FF35F2E31D0022935D0A0
:1014100001295CF82C1C49F20002C1F3C101C0F2A1
:10142000D03222FA01F101EE101A02EE103AB8EEB3
:10143000411AB8EE422A9FED4F3A81EE021A02EEAF
:1014400010EA20EE030AB8EE422A30EE020AB7EEA6
:10145000002A30EE022A5CF82C1C22EE010A090157
:101460002CD527E00021C0E90011816010BD00BF2C
:1014700001EE103A9FED3E2A04E000BF01EE103A63
:101480009FED3D2AB8EE411A82EE012A01EE10EAE4
:101490009FED383AB8EE411A20EE030A30EE010A09
:1014A000B7EE001A30EE011A5CF82C1C22EE010A8D
:1014B000090103D5DCF80010C90307D4002101603D
:1014C0005CF82C1C090118D41BE000BFDCF81010DC
:1014D000B7EE002AC1F3462101EE101AB8EE411A08
:1014E00031EE021A80EE011ABCEEC11A11EE101A8A
:1014F00001605CF82C1C090103D5DCF8001089039D
:1015000002D4002112E000BFDCF81010B7EE002A70
:10151000C1F3064101EE101AB8EE411A31EE021A7B
:1015200080EE011ABCEEC11A11EE101A41605CF88F
:101530002C1C090144BFDCF800105FEA413103D4E0
:101540000021816010BD00BFDCF81010B7EE002A4A
:10155000C1F3066101EE101AB8EE411A31EE021A1B
:1015600080EE010ABCEEC00A10EE101A816010BDB8
:1015700020BCBE4B000000390024744A80B584B002
:101580004FF6FF730246C0F21F0300209B1A70EB58
:10159000010347DA6FF060439B1A70EB0103C0F25E
:1015A00087806FF07C439B1A4FF000038B4180F2E1
:1015B000DD8082F080630B4300F08E8182F0006357
:1015C0000B4300F09F8182F08052114340F0AC82C7
:1015D00040F60041C4F20241D1F8E000C0F3C2027B
:1015E000042A00F2C98248F20000C0F2BB00DFE822
:1015F00012F0D2029502C3029B020500D1F8E82046
:101600000B6808689B0702F0404202D5002A00F0F0
:101610004F83800540F12883B2F1804F00F03B8377
:1016200022E300BF41F6FF739B1A70EB01036BDAF4
:101630004FF6FF739B1A4FF000038B4180F2D88066
:1016400082F480330B4300F0878182F400330B4334
:1016500000F09E8182F48022114340F0658240F6C2
:101660000041C4F20241D1F8DC00C0F30232002094
:10167000052A00F25982DFE812F073025102570284
:101680009B02A302070000BFD1F8E8200B6808689E
:101690009B0702F0404202D5002A00F00983800532
:1016A00040F1E282B2F1804F00F0F582DCE200BF4F
:1016B0000F2940F3C58081F01003134300F08281AD
:1016C00081F40073134300F09D8181F48051114334
:1016D00040F02A8240F60041C4F20241D1F8E40011
:1016E00000F04062B2F1806F00F0FE81002A00F04D
:1016F0006381086880074FF0000040F11582B2F165
:10170000006F00F042810FE2D2F103034FF00003BB
:101710008B41C0F2B58082F001030B4300F092814F
:1017200082F00202114340F0FF8140F60040C4F213
:101730000240D0F8D81011F0380100F01182026890
:10174000120102D5082900F01B82036802689B077A
:1017500002D5182900F00082920502D5202900F058
:101760009A82D0F8F0002839B0E200BF82F400136A
:101770000B4300F0878182F00072114340F0D48166
:1017800040F60041C4F20241D1F8F000D1F8F02057
:10179000920700F4407206D5B2F5807F02BF4FF485
:1017A000004004B080BDD1F8F000000106D5B2F5CC
:1017B000007F02BF4FF4FA4004B080BD0868800388
:1017C0004FF0000040F1B081B2F5407F40F0AC81B5
:1017D000C86910F4785F00F0CF81C86947F640010E
:1017E000C0F30520C0F27D11B1FBF0F004B080BD64
:1017F00082F400530B4300F05B8182F4804211437A
:1018000040F0928140F60040C4F20240D0F8E4106B
:1018100001F44021B1F5802F00F06681002900F02D
:101820009F8102680068920703D5B1F5002F00F090
:101830003F8200F400720020B1F5402F54E200BF57
:1018400082F000530B4300F0558181F004011143F5
:1018500040F06A8140F60040C4F20240D0F8E8103F
:101860000068800301F4407040F18081002840F05E
:101870007D8147F64000C0F27D1004B080BD00BFFE
:1018800082F004030B4300F0518182F48052114333
:1018900040F04A8140F60040C4F20240D0F8E01027
:1018A00001F0E061B1F1807F00F06A81002900F071
:1018B0008380036802689B0703D5B1F1407F00F085
:1018C0004B81920503D5B1F1806F00F0E481D0F82F
:1018D000F00001F17B41F9E140F60040C4F2024022
:1018E000D0F8E810026801F03001920440F14E8116
:1018F000002940F04B8146F60040C0F2DC2004B0E5
:1019000080BD00BF40F60041C4F20241D1F8E000C2
:1019100000F00702042A00F22F8148F20000C0F212
:10192000BB00DFE812F03801FB00290101010500CE
:10193000D1F8E8200B6808689B0702F0404202D506
:10194000002A00F0B581800540F18E81B2F1804F10
:1019500000F0A18188E100BF40F60041C4F20241DD
:10196000D1F8E40000F04072B2F1807F00F0BC805A
:10197000002A00F0F580086880074FF0000040F171
:10198000D380B2F1007F40F0CF80086890E100BFC3
:1019900040F60041C4F20241D1F8DC00C0F302225B
:1019A0000020052A00F2C080DFE812F00600B8002F
:1019B000BE0002010A01500104B0BDE8804000F001
:1019C00097BE00BF40F60040C4F20240D0F8E410D9
:1019D00001F03001102900F0DE800268120102D50A
:1019E000202900F0CD800068302900F400524FF02B
:1019F000000004BF46F60040C0F2DC20002A08BF09
:101A0000104691E040F60041C4F20241D1F8E800EE
:101A1000D1F8F02000F00800920705D5002802BF99
:101A20004FF4004004B080BDD1F8F010002818BF7A
:101A30004FF4FA4001F00061002908BF084604B0E5
:101A400080BD00BF40F60040C4F20240D0F8D8107C
:101A500011F0070100F0A6800268120102D50129E9
:101A600000F08E80036802689B0701D5032973D0BC
:101A7000920502D5042900F00E81D0F8F000053956
:101A800024E100BF40F60040C4F20240D0F8E81064
:101A900001F00701022927D0012900F09B800029CD
:101AA00040F09E8004B0BDE8804000F0C1BD00BFA2
:101AB00040F60040C4F20240D0F8E41001F4403196
:101AC000B1F5803F10D000294AD002680068920723
:101AD00003D5B1F5003F00F0EB8000F40072002068
:101AE000B1F5403F00E100BF01A8FFF76DFC03988E
:101AF00004B080BD40F60041C4F20241D1F8E000DC
:101B0000C0F38212042A37D848F20000C0F2BB00AA
:101B1000DFE802F04104320A8C0000BF01A8FFF7A1
:101B200053FC019804B080BD04B080BD40F6004075
:101B3000C4F20240D0F8D81011F4E07110D002685D
:101B4000120101D540291BD0036802689B0740F1B0
:101B50009D80C02940F09A80C2F3C100AAE000BF76
:101B600004B0BDE8804000F07BBD00BFB0F5007F51
:101B700006D0B0F5807F0ED0002004B080BD00BF3D
:101B800001A8FFF721FC029804B080BD0268920111
:101B900032D5102930D101A8FFF73CFB029804B0E0
:101BA00080BD00BF04B0BDE8804000F07DBD00BF37
:101BB000D1F8F0004FF4004101EA803004B080BD5C
:101BC000D1F8F0004FF4FA41000101EAE07004B0EE
:101BD00080BD00BF04B0BDE8804000F0ADBD00BFD7
:101BE000026892035ED503295CD147F64000C0F23B
:101BF0007D1004B080BD00BFD0F8F020920705D55D
:101C0000202902BF4FF4004004B080BDD0F8F0009E
:101C1000302900F000624FF0000008BF4FF4FA4096
:101C2000002A08BF104604B080BD00BFD1F8E820EC
:101C30000B6808689B0702F0404200D5C2B38005DC
:101C400012D5B2F1804F26D00EE000BFD1F8E820C7
:101C50000B6808689B0702F0404200D542B380053C
:101C600002D5B2F1804F16D00868B2F1004F00F4EF
:101C700000314FF0000004BF47F64000C0F27D1075
:101C8000002908BF084604B080BD00BF920519D5E1
:101C9000B1F5807F16D140F60010C0F23D0004B0CF
:101CA00080BD00BF02680068920719D5042917D1CA
:101CB000C0F3C10049F20001C0F2D03121FA00F0B6
:101CC00004B080BDD0F8F000A1F5A07110F00200C2
:101CD000B1FA81F14FEA511118BFC80304B080BDB9
:101CE00000F400720020052904BF40F60010C0F285
:101CF0003D00002A08BF104604B080BD2DE9F04722
:101D00000446006840F62848C101C4F2024807D5DD
:101D1000D8F8C010226B21F040411143C8F8C01020
:101D2000C00714D0606BC11E032909D340B101283C
:101D300014D104F1080001F0A7FD064640B9606B1C
:101D4000D8F8B01021F007010843C8F8B000002609
:101D50002078800706D4354622E000BF012620788F
:101D60008007F8D5A06B6FF0020101EBF00135465A
:101D700003290AD34FEAF000354630B1012831D1AA
:101D800004F1080001F080FD05462F464DB9D8F852
:101D9000B000A16B20F0380008430025C8F8B0005F
:101DA00037462078400722D5E06B6FF0020101EB47
:101DB000B011032909D34FEAB01030B1012837D14F
:101DC00004F1080001F060FD05462E4685B9D8F8FB
:101DD000B000E16B20F4E07008430025C8F8B000C3
:101DE00005E000BF0125012720784007DCD43E46EE
:101DF0006078C00621D5206C6FF0020101EB3061E4
:101E0000032909D34FEA306030B101283CD104F1F5
:101E1000080001F039FD05462F467DB9D8F8B80015
:101E2000216C20F0E06008430025C8F8B80004E009
:101E3000012501266078C006DDD43746607880062B
:101E400027D5606C6FF0010101EB3041022909D305
:101E50004FEA304030B1012810D104F1080001F000
:101E600013FD05462E465DB9D8F8BC00616C20F420
:101E7000403008430025C8F8BC000AE001250126CF
:101E80006078400609D424E00125012760788006A7
:101E9000D7D43E46607840061BD5A06C6FF0010198
:101EA00001EBB041022909D34FEAB04030B101281B
:101EB00032D104F1080001F0E7FC05462F464DB988
:101EC000D8F8BC00A16C20F4402008430025C8F8D5
:101ED000BC003746A078C00723D0E06C002818BFAC
:101EE000B0F1007F0CD12E46E5B9D8F8BC00E16C0A
:101EF00020F0407008430025C8F8BC0011E000BF86
:101F0000B0F1807F30D104F1080001F0BDFC05463E
:101F10002E463DB9E9E700BF01250127A078C0079B
:101F2000DBD13E466079C00623D5206D002818BF5E
:101F3000B0F1006F0CD12F46E5B9D8F8BC00216D87
:101F400020F0406008430025C8F8BC0011E000BF45
:101F5000B0F1806F62D104F1080001F095FC0546F4
:101F60002F463DB9E9E700BF012501266079C0068B
:101F7000DBD43746D4E9000140F61C4AC4F2024AD9
:101F800009050CD5DAF8001021F40041CAF8001058
:101F9000D4F88010DAF800201143CAF8001080034A
:101FA0001BD5606D6FF0020101EB3021032909D3CD
:101FB0004FEA302030B1012834D104F1080001F09B
:101FC00063FC05462E464DB9D8F8B400616D20F487
:101FD000E06008430025C8F8B4003E46A0784007FA
:101FE00025D5A06D6FF0020101EB3031032909D333
:101FF0004FEA303030B101282AD104F1080001F055
:1020000043FC05462F469DB9D8F8B400A16D20F4D5
:10201000E04008430025C8F8B40008E00125012786
:10202000A8E700BF01250126A0784007D9D437468C
:10203000A07880062BD5606E05280FD8022815D011
:102040002946DDB1D4E90002920525D433E000BF72
:1020500001250127A0788006EDD418E00125012193
:10206000D4E90002920517D425E000BF04F108006E
:1020700001F00AFC0546002D2946E3D1D8F8C0003E
:10208000616E20F0070008430025C8F8C0003946FB
:10209000D4E9000292050ED5A26E42F00803082B87
:1020A0000ED1A94645B9D8F8C030002523F0080361
:1020B0001A43C8F8C0208946800106D4484621E06A
:1020C00001254FF001098001F8D54FF60847CFF6FA
:1020D000FF775AF8070040F001004AF80700FEF7C2
:1020E0008FFC06465AF80700C00707D1FEF788FCA8
:1020F000801B0228F6D90325032003E0002D284683
:1021000000F00E8121684A011BD5226E6FF0010399
:1021100003EB3213022B0AD34FEA32133BB1012BEC
:102120002ED1D8F8003043F40033C8F800302F46E1
:1021300045B9D8F8C030002523F030031A43C8F859
:10214000C020074608011FD5E06EC11E02290BD32F
:10215000012800F0BB80002840F0C280D8F80000C1
:1021600040F40030C8F800002E4675B9D8F8B80021
:10217000E16E20F0070008430025C8F8B80003E02E
:10218000012501270801DFD43E46E078C0061FD5AF
:10219000206F6FF0020101EBF00102290DD34FEA2D
:1021A000F000012800F0A080002840F0A780D8F8B7
:1021B000000040F40030C8F800002F464DB9D8F8B0
:1021C000B800216F20F0380008430025C8F8B80097
:1021D0003746E07880061FD5606F6FF0020101EB93
:1021E000B01102290DD34FEAB010012800F08A8007
:1021F000002840F09180D8F8000040F40030C8F882
:1022000000002E464DB9D8F8B800616F20F4E07098
:1022100008430025C8F8B8003E462079400721D57C
:10222000E06D58B1B0F5007F0CD0B0F5807F49D19A
:10223000D8F8000040F40030C8F800002F4695B9E7
:1022400007E000BF04F1080001F01EFB05462F4621
:102250004DB9D8F8C000E16D20F440700843002566
:10226000C8F8C00037462079C0065CBF3846BDE8D4
:10227000F087E06F30280CD020280FD010281CBF2A
:102280000120BDE8F087D8F8000040F40030C8F81D
:10229000000055B12846BDE8F08700BF04F10800F2
:1022A00001F0F2FA0546002DF4D1D8F8BC00E16F38
:1022B00020F0300008433D46C8F8BC002846BDE881
:1022C000F08700BF01250127CDE700BF04F108001A
:1022D00001F0DAFA0546002D2E467FF456AF45E7A9
:1022E0000125012651E700BF04F1080001F0CCFAF6
:1022F0000546002D2F467FF46CAF60E701250127CE
:1023000067E700BF04F1080001F0BEFA0546002DA2
:102310002E467FF482AF76E7012501267DE700BFD8
:10232000D8F8C80010F4407016D0A16F884211D0C0
:10233000D8F8C800D8F8C81020F4407041F48031B3
:10234000C8F8C810D8F8C81021F48031C8F8C810EF
:10235000C8F8C800C00721D1A06FDAF800104FF606
:10236000CF7300F4407221F47C51C0F2FF0303EA02
:102370001013B2F5407F08BF1943CAF80010D8F80F
:10238000C8106FF31F3021F44071C8F8C810D8F896
:10239000C81000250843C8F8C8008FE6FEF730FBD8
:1023A000064641F288370325D8F8C8008007D3D401
:1023B000FEF726FB801BB8424FF00300F4D9A1E6DC
:1023C0002DE9F04381B0002800F0CD8042F20008F2
:1023D000C4F202080446D8F800000D4600F00F00D1
:1023E00088420DD2D8F8000020F00F002843C8F82A
:1023F0000000D8F8000000F00F00A84240F0B380C1
:10240000206840F62047C106C4F202470CD5616936
:102410003A68702303EA1222914205D93A6822F4FD
:10242000E04242EA0121396001070CD521693A688E
:10243000702303EA1212914205D93A6822F4E0624D
:1024400042EA0111396041070AD5E1683A6802F0B1
:102450007002914204D93A6822F070021143396047
:1024600081070AD5A1683A6802F00F02914204D9A7
:102470003A6822F00F0211433960C00768D1206822
:1024800081070AD5A1683A6802F00F02914204D28E
:102490003A6822F00F0211433960D8F8001001F0B9
:1024A0000F01A9420CD9D8F8001021F00F012943DF
:1024B000C8F80010D8F8001001F00F01A94252D15D
:1024C00041070AD5E1683A6802F07002914204D2ED
:1024D0003A6822F070021143396001070CD5216976
:1024E0003A68702303EA1212914205D23A6822F444
:1024F000E06242EA01113960C0060CD560693968B2
:10250000702202EA1121884205D2396821F4E041A3
:1025100041EA0020386000F00FF9396845F2941262
:1025200001F00F01C0F60002525C40F20801C2F255
:102530000001096840F20C0320FA02F2C2F2000323
:1025400008461A6001B0BDE8F043FEF7CFBD00BFFA
:10255000606801280CD002285ED0032862D157F8A9
:10256000201C890108D4012001B0BDE8F08300BF20
:1025700057F8201C8905F6D557F8041C21F00301F3
:10258000084347F8040CFEF73BFA61680646032946
:1025900041F288392BD0022937D0012910D100BF50
:1025A00057F8040C00F0180008283FF468AFFEF755
:1025B00027FA801B48454FF00300F1D90DE000BF1A
:1025C00057F8040C10F0180F3FF459AFFEF718FA43
:1025D000801B48454FF00300F2D901B0BDE8F083FD
:1025E000FEF70EFA801B48454FF00300F5D857F868
:1025F000040C00F018001828F2D140E7FEF700FAAA
:10260000801B48454FF00300E7D857F8040C00F052
:1026100018001028F2D132E757F8201C8903A2D500
:10262000AAE700BF57F8201C89079CD5A4E7000043
:1026300080B500F081F840F62041C4F202410968FB
:1026400045F2941201F00F01C0F60002515C01F056
:102650001F01C84040F20C01C2F20001086080BDB9
:1026600080B500F069F840F62041C4F202410A68E2
:1026700045F2941302F00F02C0F600039A5C02F0D8
:102680001F02D04040F20C02C2F200021060096842
:1026900045F2A412C1F30211C0F60002515C01F030
:1026A0001F01C84080BD000080B500F045F840F62D
:1026B0002041C4F202410A6845F2941302F00F026D
:1026C000C0F600039A5C02F01F02D04040F20C02F8
:1026D000C2F200021060096845F2A412C1F302219F
:1026E000C0F60002515C01F01F01C84080BD00002F
:1026F00080B500F021F840F62041C4F202410A689A
:1027000045F2941302F00F02C0F600039A5C02F047
:102710001F02D04040F20C02C2F2000210600968B1
:1027200045F2A412C1F30231C0F60002515C01F07F
:102730001F01C84080BD000080B540F60041C4F2D2
:102740000241C86900F01800082802BF40F60010D6
:10275000C0F23D0080BDC86910F0180F34D0C869C0
:1027600000F01800102802BF47F64000C0F27D10AC
:1027700080BDC86900F01800182849F20000C0F2B6
:10278000D03066D1D1F828E08A6AC2F3052C8A6A73
:102790008B6BBCF1000F04BF002080BDC2F30012A0
:1027A000C3F3CC0303FB02F200EE102A0EF0030287
:1027B000B8EE400A032A15D0012A17D10A689206FA
:1027C00018D49FED251A1DE00868800649F2000024
:1027D000C0F2D03058BF80BD0968C1F3C101C84004
:1027E00080BD00BF9FED1B1A0CE000BF9FED1B1AC0
:1027F00008E000BF0A68C2F3C102D04001EE100A2F
:10280000B8EE411A02EE10CA486BB8EE422A6FF3D6
:102810005F2081EE021A02EE100A9FED113AB8EE27
:10282000422A20EE030A486B30EE020AB7EE002A75
:10283000C0F3462030EE020A013021EE000A01EE1C
:10284000100AB8EE411A80EE010ABCEEC00A10EE82
:10285000100A80BD20BCBE4B0024744C0024744A76
:10286000000000392DE9F04381B0002800F0168106
:1028700040F6004740F6F0490446C4F20247C4F26D
:102880000249F86959F8C81C227800F01808D006E7
:1028900001F0030629D5B8F1080F1BD0B8F1180FC5
:1028A00008BF022E16D0E1693868002900F0668161
:1028B00040F480703860FEF7A3F80546386880055C
:1028C0000CD4FEF79DF8401B02284FF00300F5D909
:1028D0005EE200BFE069002800F0E080B869216A8C
:1028E00020F47C1040EA0140B8612078C00717D07E
:1028F000B8F1100F10D0B8F1180F08BF032E0BD08D
:102900006068B0F5A02F5FDA002800F0A181B0F573
:10291000803F00F0C181C3E16068002800F0BE8004
:102920002078800775D5B8F1000F21D0E068B8F1A4
:10293000180F08BF012E55D03968002800F06481B7
:10294000206921F0180108433860386840F0010020
:102950003860FEF755F805463868800752D4FEF710
:102960004FF8401B02284FF00300F5D910E200BFDA
:10297000E068002800F092803968206901F01801B1
:10298000814231D0396821F0180108433860FFF7DF
:10299000D3FE396A45F2941201F00F01C0F600022D
:1029A000515C40F20C0201F01F0120FA01F140F2EB
:1029B0000800C2F200000068C2F200021160FEF7D7
:1029C00095FB00286AD10FE000F05E81B0F5A81FEA
:1029D00040F06681386840F480203860386840F400
:1029E000801058E1002859D0FEF70AF8054600BFCC
:1029F0003868800706D4FEF703F8401B0228F7D991
:102A000065E000BF3869616920F4FE0040EA0140DA
:102A100038612078000745D4207840075CD42078BE
:102A2000800600F17D80A56AA5B3B8F1180F40F0CB
:102A3000C98059F8C81C59F8BC0C012D2ED0E26A87
:102A400001F00303934229D1C1F30521226B914286
:102A500024D1626B01466FF35F21013A91421DD18F
:102A6000A16BC0F3462201398A4217D1E16BC0F352
:102A7000064201398A4211D1216CC0F30660013946
:102A800088420BD159F8B80CE16CC0F3CC008842F5
:102A900040F0F281002001B0BDE8F083012001B0D8
:102AA000BDE8F083A169D9F80000002950D040F0BA
:102AB0008060C9F80000FDF7A3FF0546D9F80000C3
:102AC0000001A9D4FDF79CFF401B0228F6D9032082
:102AD00001B0BDE8F08300BF4FF62446CFF6FF7685
:102AE000B859C00712D1B85940F00100B851FDF7EC
:102AF00087FF0546B859C00708D1FDF781FF401B85
:102B000002284FF00300F5D942E100BFA068042875
:102B100046DC002800F0E080012800F00F8113E17E
:102B2000616A3868002900F0818040F48050386084
:102B3000FDF766FF054600BF386880043FF573AFB8
:102B4000FDF75EFF401B02284FF00300F4D91FE1A0
:102B500020F08060C9F80000FDF752FF054600BF75
:102B6000D9F8000000017FF557AFFDF749FF401B82
:102B700002284FF00300F3D90AE100BF20F480706F
:102B80003860FDF73DFF0546386880057FF5ADAE3E
:102B9000FDF736FF401B02284FF00300F4D9F7E0A1
:102BA000052800F0BF80852840F0CE80D9F80000CD
:102BB00040F00400C9F80000D9F8000040F080009F
:102BC000BAE000BF386820F080703860FDF718FF69
:102BD000022D05460CD100BF3868800140F1DC8031
:102BE000FDF70EFF401B02284FF00300F4D9CFE0A1
:102BF0003868800140F13281FDF702FF401B022856
:102C00004FF00300F4D9C3E021F001003860FDF774
:102C1000F7FE0546386880077FF5FBAEFDF7F0FE4E
:102C2000401B02284FF00300F4D9B1E020F480509B
:102C30003860FDF7E5FE0546386880047FF5F3AEA1
:102C4000FDF7DEFE401B02284FF00300F4D99FE0A1
:102C5000386820F480303860386820F4801038609C
:102C6000386820F480203860FDF7CAFE054600BFB2
:102C7000386880037FF554AEFDF7C2FE401B642820
:102C80004FF00300F4D983E0386840F480203860C6
:102C9000386820F480103860386840F480300AE0EA
:102CA000386820F480303860386820F4802038603C
:102CB000386820F480103860FDF7A2FE054600BF9A
:102CC000386880033FF52CAEFDF79AFE401B642860
:102CD0004FF00300F4D95BE0D9F8000020F00100C8
:102CE000C9F80000D9F8000020F08000C9F8000001
:102CF000D9F8000020F00400C9F80000FDF780FEBC
:102D0000054641F2883600BFD9F8000080077FF5FC
:102D100086AEFDF775FE401BB0424FF00300F3D9BD
:102D200036E000BFD9F8000040F00400C9F8000008
:102D3000D9F8000020F08000C9F80000D9F80000A0
:102D400040F0010010E000BFD9F8000020F00100C1
:102D5000C9F80000D9F8000020F00400C9F800000C
:102D6000D9F8000020F08000C9F80000FDF748FE07
:102D7000054641F2883600BFD9F8000080073FF5CC
:102D80004EAEFDF73DFE401BB0424FF00300F3D9BD
:102D900001B0BDE8F08300BF59F8C80C43F60371D9
:102DA00004F12C0388430ECB084340EA0220A16BB8
:102DB00049F8C80C4FF47E4202EB4121E26B581EE9
:102DC0004FF4FE0389B203EB02426FF35F20084425
:102DD00002F4FE01226C4FF0FE4303EB0262084452
:102DE00002F0FE41084449F8BC0C59F8C80C20F028
:102DF000100049F8C80CE06CC00049F8B80C59F84C
:102E0000C80C40F0100049F8C80C59F8C80C616CA7
:102E100020F00C00084349F8C80C59F8C80CA16C04
:102E200020F02000084349F8C80C59F8C80C40F4B9
:102E3000803049F8C80C386840F080703860FDF781
:102E4000DFFD0446386880013FF524AEFDF7D8FD6C
:102E5000001B02284FF00300F4D999E759F8C80C79
:102E60004FF6FC71CFF6F871084049F8C80C002005
:102E700001B0BDE8F08300BF59F8C80C20F0100085
:102E800049F8C80CFDF7BCFD0546FDF7B9FDA842A1
:102E9000FBD0E06CC00049F8B80C59F8C80C40F001
:102EA000100049F8C80C002001B0BDE8F083000014
:102EB000042888BF7047DFE800F003152738390081
:102EC0004EF21000CEF20000016821F00401016012
:102ED00040F6E440C4F20240016821F00C010160B8
:102EE000704700BF4EF21000CEF2000001680122D0
:102EF00021F00401016040F6E440C4F202400168A0
:102F000062F38301016070474EF21000CEF20000C0
:102F10000168022221F00401016040F6E440C4F29D
:102F20000240016862F38301016070474EF21000B5
:102F3000CEF20000016841F004010160704700001A
:102F4000411E0020B0EB116F1CBF012070474EF2F4
:102F50001002CEF2000251609060116841F003014E
:102F6000116070474EF21000CEF20000006840077A
:102F700044BF0420704740F6E440C4F202400068B9
:102F800000F00C01081FB0FA80F04009082908BFC2
:102F90000220704790F88410012904BF0220704776
:102FA0002421C0F8881002681168136823F0010317
:102FB000136021F000530021416613602022C0F805
:102FC000882080F88410084670470000B0B590F85B
:102FD0008420012A04BF0220B0BD2422C0F888202A
:102FE0000268D0F864E0D2F800C01368BEF1000FA8
:102FF00023F001031360936823F0606341EA030147
:10300000916019D09368916845F2C41E490FC0F6CB
:10301000000E45F2CC151EF80140C0F60005C3F3C2
:103020004263695CE400B4FBF1F11EF80340EB5C21
:10303000E500B5FBF3F301E001210123A0F86A10DC
:103040002021A0F86830C2F800C0C0F88810002124
:1030500080F884100846B0BDB0B590F88420012AED
:1030600004BF0220B0BD2422C0F888200268D0F836
:1030700064E0D2F800C01368BEF1000F23F0010332
:103080001360936823F0604341EA0301916019D013
:103090009368916845F2C41E490FC0F6000E45F2D0
:1030A000CC151EF80140C0F60005C3F34263695C0D
:1030B000E400B4FBF1F11EF80340EB5CE500B5FB66
:1030C000F3F301E001210123A0F86A102021A0F808
:1030D0006830C2F800C0C0F88810002180F8841061
:1030E0000846B0BD10B5E0B10446D0F8880028B954
:1030F000002084F88400204600F028F82420C4F83A
:1031000088002068A16A0268002922F0010202609A
:103110001CBF204600F0ECFC204600F015FE012804
:1031200002D1012010BD00BF2168486820F4904002
:103130004860886820F02A008860086840F0010232
:1031400020460A60BDE8104000F046BD10B5A8B0AA
:103150000446684608308021FDF7D4F8206843F61D
:103160000001C4F20101884202D028B010BD00BFA6
:1031700001200024009068460194FEF7BFFD00285E
:1031800018BFFDF751FB40F68C40C4F20240816944
:1031900041F480418161816901F480412391239947
:1031A000016841F001010160006823A900F00100FD
:1031B000239023984FF4C06023900220CDE924048B
:1031C000072027900020C4F202202694FDF744FB3C
:1031D00028B010BD2DE9F0410446D0F88800202821
:1031E0001CBF0220BDE8F0810F4600294FF001000E
:1031F0001CBF1646002A01D1BDE8F08120681D469B
:103200008168090603D5816821F0800181604FF053
:1032100000082120C4F89080C4F88800FDF7F0FB76
:10322000A4F85460A4F85660A1680646B1F5805F22
:1032300005D12069002814BF3846B8460746B4F8BF
:103240005600D8B1681C1BD0002D71D121680AE04E
:1032500017F8010B8862B4F856000138A4F856003C
:10326000B4F8560078B3C869000659D5002FEFD1DD
:1032700038F8020B00276FF35F20EBE7216822E0AC
:10328000216802E0C869000609D4C869000606D4AE
:10329000C86900065CBFC8695FEA0060F2D51FB16B
:1032A00017F8010B05E000BF38F8020B00276FF399
:1032B0005F208862B4F856000138A4F85600B4F8CC
:1032C00056000028E1D1C869400623D445B3681CE4
:1032D00010D100BFC869400616D4C869400613D48F
:1032E000C869400610D4C86940064FF00000F1D507
:1032F00011E000BFFDF784FB801BA84212D82068B4
:103300000168C0694006F5D500202021C4F8881066
:10331000BDE8F08100202021C4F88810BDE8F081CC
:10332000FDF76EFB03202021C4F88810BDE8F08172
:10333000216800BFC869000608D4FDF761FB801B47
:10334000A842EFD821680868F4E700BF17B117F862
:10335000010B04E038F8020B00276FF35F2088624E
:10336000B4F856000138A4F85600B4F85600002806
:10337000E0D1A8E7FEE7000070B5044600681546F6
:103380008369DA0602D40021002266E00E4610218D
:10339000C161816989065CD4711C50D036BBFDF7D0
:1033A0002FFB2068426894F8421083691B040BD5F8
:1033B00012F4804208D1202906D0416841F48041AE
:1033C0004160FDF71DFB054620688169890605D42B
:1033D000FDF716FB401B1A28F6D328E08169890601
:1033E000DDD536E020688169890632D4FDF708FB17
:1033F000401BB042F6D92068426894F842108369B5
:103400001B040BD512F4804208D1202906D0416854
:1034100041F480414160FDF7F3FA05462068806978
:103420008006DFD4FDF7ECFA401B1A28F6D320689B
:1034300001228169242110E08169890609D481690A
:10344000890606D4816989065CBF81695FEA81616A
:10345000F2D52021C161012204218369DE0505D551
:103460004FF4807241F00101C26101225E0507D470
:103470009B050CD4002A04BF002070BD0CE000BFE7
:1034800041F008014FF480629B05C26104D541F010
:1034900002014FF40072C2618269920744BF0022A8
:1034A00082628269D20703D1826942F0010282619D
:1034B00042684EF60003CFF600631A404260606C2B
:1034C00008436064202084F84100002084F8420012
:1034D00084F84000012070BD2DE9F04104460068E9
:1034E00080690840401AB0FA80F04009904271D1DA
:1034F000DDF8188015460E461F46581C30D0002FA8
:1035000042D100BF204600214246FFF735FF002888
:103510001CBF0120BDE8F081FDF772FA20688169C7
:103520003140891BB1FA81F14909A94242D0806931
:103530003040801BB0FA80F04009A8421CBF002038
:10354000BDE8F081DEE700BF206880693040801B65
:10355000B0FA80F04009A8421CBF0020BDE8F0810D
:1035600020464FF0FF314246FFF706FF0028EBD020
:103570000120BDE8F08100BF80693040801BB0FAB7
:1035800080F04009A84225D1204639464246FFF73F
:10359000F3FE0028ECD1FDF733FAA0EB0801206818
:1035A000B942E9D981693140891BB1FA81F14909F0
:1035B000A942E1D1606C40F020006064202084F8D2
:1035C0004100002084F8420084F840000120BDE85A
:1035D000F08100BF0020BDE8F081000070B5044616
:1035E00000688069800637D415460E4619B92AE06E
:1035F0008069800630D4204631462A46FFF7BCFE5B
:1036000040BBFDF7FDF9411B2068B142F0D981694B
:103610008906EDD4606C40F020006064202084F8BE
:103620004100002084F8420084F84000012070BD71
:10363000FDF7E6F9206881698906EBD58069800687
:1036400044BF002070BD204600212A46FFF794FEAB
:103650000028EDD0012070BD002070BD70B504467B
:103660000068806980074DD415460E46481C1DD061
:103670004EBB00BF204600212A46FFF77DFE0028F2
:103680001CBF012070BDFDF7BBF920688169890767
:1036900029D58069800744BF002070BDEAE700BFDC
:1036A00020688069800744BF002070BD20464FF02D
:1036B000FF312A46FFF760FE0028F1D0012070BDDF
:1036C000806980071ED4204631462A46FFF754FE03
:1036D0000028F3D1FDF794F9411B2068B142EFD9DE
:1036E00081698907ECD4606C40F020006064202080
:1036F00084F84100002084F8420084F84000012052
:1037000070BD00BF002070BD70B586B0002540F6CA
:103710008C400595C4F202400168002441F001018B
:1037200001600168C4F2022401F0010100910099D6
:103730000168002241F0020101600068042100F0EC
:1037400002000090009820460426FDF753F901205E
:10375000CDE9020501A9204601960495FDF77CF804
:1037600006B070BD80B540F2200045F2004244F240
:10377000E533C2F200000021C4F200024FF0010C58
:10378000C1F2C003C0E90023C0E9021CC0E9041172
:10379000C0E906110162FDF783F9002818BFFDF7A3
:1037A00043F840F22000C2F200000021FDF72EF99C
:1037B000002818BFFDF738F840F22000C2F20000E0
:1037C0000021FDF749F9002808BF80BDBDE8804011
:1037D000FDF72AB880B50020FDF73AFC002818BF95
:1037E000FDF722F8FDF744FC002808BF80BDBDE8C6
:1037F0008040FDF719B8000080B540F2740043F630
:1038000000034FF4E131C2F200000022C4F20103D0
:103810004FF00C0CC0E90031C0E90222C0E9042CD1
:10382000C0E90622C0E908228262FFF75BFC00289B
:1038300018BFFCF7F9FF40F27400C2F2000000214B
:10384000FFF70AFC002818BFFCF7EEFF40F27400F7
:10385000C2F200000021FFF7B9FB002818BFFCF7F7
:10386000E3FF40F27400C2F20000FFF793FB002870
:1038700008BF80BDBDE88040FCF7D6BFFEE7000072
:10388000FEE700007047000070B540F62C46C4F219
:10389000024656F82C1C044621F0806046F82C0C99
:1038A000FDF7AEF8054600BF56F82C0C000107D511
:1038B000FDF7A6F8401B022884BF032070BDF3E784
:1038C000306843F60371884394E80E00084340EAE9
:1038D0000220E16830604FF47E4202EB4121226910
:1038E000581E4FF4FE0389B203EB02426FF35F20D0
:1038F000084402F4FE0162694FF0FE4303EB0262EA
:10390000084402F0FE41084430613068A16920F0AB
:103910000C00084330603068E16920F02000084363
:103920003060606A31680843306030684FF6F87183
:1039300020F0100030607069226A884340EAC200BB
:103940007061306840F01000306056F82C0C40F088
:10395000806046F82C0CFDF753F8044656F82C0C02
:10396000000144BF002070BDFDF74AF8001B03288A
:1039700024BF032070BDF1E770470000FDF782BB54
:1039800010B59CB008A840F6140404302421C4F2F9
:103990000244FCF7B7FC0020CDE90600CDE90400A5
:1039A000CDE9020054F8040C40F0300044F8040C57
:1039B00054F8040C00F030000190019820680007D2
:1039C00009D4206800075CBF20685FEA007002D459
:1039D00020680007F2D5102008904FF480700F90F7
:1039E000202001211090022014917D21CDE91200A8
:1039F000CDE91510CDE9170008201990002408A87A
:103A0000CDE91A44FEF72EFF10B172B6FEE700BFF3
:103A10001F2002900320CDE9030402A80521CDE96F
:103A200005440794FEF7CCFC10B172B6FEE700BF68
:103A300042F20000C4F202000168022262F30511A2
:103A400001601CB010BD00004EF6885CCEF2000C88
:103A5000DCF80000012240F47000CCF8000040F6D1
:103A60000040C4F2024002600022C26102620368A8
:103A70004EF6E321CFF6E2211940016040F28021A9
:103A8000C0F201118262C26241638263C163026457
:103A9000016821F48021016002654FF0006142F26B
:103AA0001C00C4F202004CF8801C50F8041C4A0FA1
:103AB000062A05D801F06041B1F1404F18BF7047A8
:103AC0000168C9070BD042F63B21C0F6190140F846
:103AD000101C46F67F61C4F65D4140F8101C016879
:103AE00041F002010160016841F00101016070478D
:103AF00080B5816A0A070DD4CA0716D18A071FD478
:103B00004A0728D4CA0631D48A063AD44A0658D578
:103B100042E000BF0268D0F838C0536823F4004385
:103B200043EA0C035360CA07E8D00268D0F82CC0FF
:103B3000536823F4003343EA0C0353608A07DFD54C
:103B40000268D0F830C0536823F4803343EA0C0392
:103B500053604A07D6D50268D0F834C0536823F4BE
:103B6000802343EA0C035360CA06CDD50268D0F81F
:103B70003CC0936823F4805343EA0C0393608A06A5
:103B8000C4D50268D0F840C0936823F4005343EAD8
:103B90000C0393604A0614D50268D0F844C05368F9
:103BA000BCF5801F23F4801343EA0C03536008D153
:103BB000D2F804C0D0F848E02CF4C00343EA0E0366
:103BC0005360090658BF80BD0168C06C4A6822F482
:103BD00000221043486080BDB0B582B0044600208A
:103BE000C4F89000FCF70CFF216805460A6812072C
:103BF00037D56FF07E4C20464FF4001100222B4643
:103C0000CDF800C000F078F950B300BF206850E84C
:103C1000000F216820F0800041E80002DAB120683E
:103C200050E8000F216820F0800041E8000292B1C6
:103C3000206850E8000F216820F0800041E8000271
:103C40004AB1206850E8000F216820F0800041E868
:103C50000002002ADAD12020C4F8880060E000BF0A
:103C600021680868400761D56FF07E4C20464FF40C
:103C7000800100222B46CDF800C000F03DF900285D
:103C800054D000BF206850E8000F216820F49070E5
:103C900041E80002E2B1206850E8000F216820F4FA
:103CA000907041E800029AB1206850E8000F216846
:103CB00020F4907041E8000252B1206850E8000FF3
:103CC000216820F4907041E80002002ADAD100BF98
:103CD000206850E8020F216820F0010041E802024C
:103CE000DAB1206850E8020F216820F0010041E8B5
:103CF000020292B1206850E8020F216820F0010012
:103D000041E802024AB1206850E8020F216820F021
:103D1000010041E80202002ADAD12020C4F88C0018
:103D20000320002184F8841002B0B0BD2020C4F824
:103D30008800C4F88C000020E0662067002184F829
:103D4000841002B0B0BD000070B504460168806800
:103D500004F10C052CCD18432843E6690B6846F6A0
:103D6000F315CCF6FF7530432B40184308604868C4
:103D70004FF2FF4520F440501043486042F20042A9
:103D8000A069C4F2004291421CBF236A18438B68A9
:103D9000C1F2FF152B4018438860C86A636A20F09F
:103DA0000F00184343F2FF73C4F201039942C86243
:103DB00010DC44F20040C4F20000814218D044F606
:103DC0000000C4F20000814256D10420914216D175
:103DD00055E000BF43F60000C4F2010081420BD061
:103DE000914249D14FF48050914208D147E000BF41
:103DF0000220914203D142E0012091423FD00021B4
:103E0000FDF7BCFBB6F5004F1ED1002864D0616AF7
:103E100045F2AC12C0F6000232F811106268B0FB35
:103E2000F1F0510801EB4000B0FBF2F04FF6EF72F9
:103E3000A0F11001914253D84FF6F071C0F3420245
:103E40000840104443E000BF002847D0616A45F2B3
:103E5000AC12C0F6000232F811106268B0FBF1F04B
:103E600000EB5200B0FBF2F04FF6EF72A0F1100140
:103E700091422CD9012536E000209142BFD100218A
:103E80000025FDF77BFB70B3616A45F2AC12C0F60A
:103E9000000232F811106268B0FBF1F002EB42014F
:103EA000012588421FD3110388421CD8010E00024D
:103EB00010EB520041F100010023FCF7EBF94FF643
:103EC0000052A0F54071C0F20F0291420AD221685F
:103ED0000025C86007E000BF002504E0002502E0DF
:103EE000012500E001254FF00110A06600212846C1
:103EF0006167A16770BD00002DE9F0418046006850
:103F00001546C2690E461140891BB1FA81F1490973
:103F1000A94240F08380069C34B3611C2AD100BFC3
:103F2000C1693140891BB1FA81F14909A94275D1B2
:103F3000C1693140891BB1FA81F14909A9426DD1AA
:103F4000C1693140891BB1FA81F14909A94265D1A2
:103F5000C1693140891BB1FA81F14909A9421CBFED
:103F60000020BDE8F081DBE7FCF74AFD0320BDE857
:103F7000F08100BF1F4607E0C0693040801BB0FAE7
:103F800080F04009A84249D1FCF73AFDC01BA0428D
:103F900084BF0320BDE8F081D8F80000016849071C
:103FA000EAD5402E18BF802EE6D0C169090739D462
:103FB000C1690905E0D54FF40061016250E8000FC6
:103FC000D8F8001020F4907041E80002002A5FD079
:103FD000D8F8000050E8000FD8F8001020F49070D6
:103FE00041E80002002A53D0D8F8000050E8000F42
:103FF000D8F8001020F4907041E80002002A47D061
:10400000D8F8000050E8000FD8F8001020F49070A5
:1040100041E80002E2B3D8F80000CFE70020BDE895
:10402000F08100BF0821016250E8000FD8F80010AD
:1040300020F4907041E80002002A00F09780D8F840
:10404000000050E8000FD8F8001020F4907041E80C
:104050000002002A00F08A80D8F8000050E8000F23
:10406000D8F8001020F4907041E80002002A7DD0BA
:10407000D8F8000050E8000FD8F8001020F4907035
:1040800041E80002002A71D0D8F80000CCE700BF58
:104090004FF6FE70CEF6FF70D8F8001051E8021F00
:1040A000D8F80020014042E80213F3B1D8F800101C
:1040B00051E8021FD8F80020014042E80213A3B1E2
:1040C000D8F8001051E8021FD8F80020014042E85B
:1040D000021353B1D8F8001051E8021FD8F800209D
:1040E000014042E80213002BD6D1D8F86C00012819
:1040F0002CD1D8F8000050E8000FD8F8001020F0BC
:10410000100041E800020AB3D8F8000050E8000FA0
:10411000D8F8001020F0100041E80002B2B1D8F841
:10412000000050E8000FD8F8001020F0100041E81F
:1041300000025AB1D8F8000050E8000FD8F800107B
:1041400020F0100041E80002002AD2D120200021F6
:10415000C8F88C00C8F86C10C8F87410C8F8900043
:10416000032088F88410BDE8F08100BF4FF6FE7090
:10417000CEF6FF70D8F8001051E8021FD8F80020E2
:10418000014042E80213F3B1D8F8001051E8021FD1
:10419000D8F80020014042E80213A3B1D8F800107B
:1041A00051E8021FD8F80020014042E8021353B141
:1041B000D8F8001051E8021FD8F80020014042E86A
:1041C0000213002BD6D1D8F86C0001282CD1D8F8D6
:1041D000000050E8000FD8F8001020F0100041E86F
:1041E00000020AB3D8F8000050E8000FD8F8001019
:1041F00020F0100041E80002B2B1D8F8000050E809
:10420000000FD8F8001020F0100041E800025AB169
:10421000D8F8000050E8000FD8F8001020F0100087
:1042200041E80002002AD2D12020C8F88C000020EA
:104230000821C8F86C00C8F87400C8F8901088F815
:1042400084000120BDE8F081FEE7000080B582B067
:10425000019040F27400C2F2000001A901224FF661
:10426000FF73FEF7B7FF019802B080BDB0B582B012
:104270000C460DF1050227210123054600F096F9B1
:1042800010B1002115E000BF0DF1060228462421DF
:10429000012300F08BF908B100210AE00DF10702BB
:1042A00028462621012300F081F99DF8071021F00E
:1042B0001F019DF805209DF8063002F0030203F06F
:1042C000010542EA850203F0020542EA850203F095
:1042D000040342EA83021143217002B0B0BD000022
:1042E000B0B582B00D460DF106020E210123044641
:1042F00000F05CF910B102B0B0BD00BF28789DF8A5
:10430000061000F0040001F07F0141EA40100DF1B9
:1043100006028DF8060020460E21012300F0A8F9C0
:104320000028E8D10DF1070220461921012300F0F1
:104330003DF90028DFD19DF807006978AA7801F0DF
:10434000010100F0DC0040EA411002F003010844E2
:104350008DF807000DF1070220461921012300F016
:1043600087F902B0B0BD0000B0B582B014460D466A
:104370000DF103022821052300F018F99DF805200E
:104380009DF8043012069DF8031042EA03432A7890
:1043900043EA0121012A61600AD09AB900EE101A9D
:1043A0009FED141AB8EEC00A20EE010A0CE000BF1F
:1043B00000EE101A9FED0E1AB8EEC00A20EE010AA8
:1043C00002E000BF9FED090ABDF9061084ED000A66
:1043D0009FED092A01EE101AA181B8EEC11A81EEF3
:1043E000021A84ED021A02B0B0BD00BF0000000046
:1043F00000000036000080350000C84210B582B0D1
:104400000C460DF107020F21012300F0CFF89DF8B3
:104410000710217002B010BDB0B582B00D460DF18D
:10442000050211210223044600F0C0F810B102B0C9
:10443000B0BD00BF9DF8050035B1022D1AD0012D89
:104440001CD140F080001BE09DF8061040F00800F1
:1044500041F001018DF807008DF805008DF8061078
:104460000DF1050220461121022300F001F902B0EE
:10447000B0BD00BF40F0040002E000BF40F0040007
:104480008DF807000DF1070220461121012300F0ED
:10449000EFF802B0B0BD0000B0B582B00D460DF12E
:1044A000060210210223044600F080F810B102B089
:1044B000B0BD00BF9DF806009DF807106B78AA7884
:1044C00000F0800095F800C0ED7863F3C60002F0BC
:1044D000070201F08F01104465F3041105F0020298
:1044E00041EA02110CF0010241EA82118DF8060046
:1044F0008DF807100DF1060220461021022300F06E
:10450000B7F802B0B0BD000070B582B00E460DF134
:1045100007021321012300F049F89DF807203178A4
:10452000C2F3401402F0020301F0F001234402F050
:104530000105194441EA850102F0040241EA420101
:10454000317002B070BD0000B0B582B00D460DF103
:10455000070213210123044600F028F810B102B02D
:10456000B0BD00BF29789DF8070001F0020200F0FD
:10457000C80CC1F38003042561F3451205EA510517
:1045800011F00E0002EB0C0118BF01201944294460
:1045900041EA00100DF107028DF8070020461321B3
:1045A000012300F065F802B0B0BD0000002804BF90
:1045B0004FF0FF30704780B5D0F80CC0D0F804E061
:1045C0006046F446BDE8804060470000F0B581B029
:1045D0000F460DF10102112101230546FFF7E6FF09
:1045E00010B1802120E000BF0DF1020228462421F5
:1045F0000123FFF7DBFF08B1802115E06A4628465A
:1046000027210123FFF7D2FF10B180210CE000BF6A
:104610000DF1030228460B210123FFF7C7FF9DF888
:1046200003106FEA5111C9019DF801209DF8025055
:104630000224C2F380039DF8006004EA951502F09D
:1046400001022B4406F0100545EA821206F020050F
:1046500006F001042A4442EA840206F002061A44E3
:1046600042EA8602114381F04001397001B0F0BD89
:10467000002804BF4FF0FF30704780B5D0F80CC061
:10468000D0F800E06046F446BDE880406047000096
:104690008CB0FCF705FDFFF773F9FFF735F8FFF76E
:1046A00061F8FFF7A9F8FFF795F847A000F060FD63
:1046B00044F65900C0F60000049044F63500C0F6F8
:1046C0000000059044F63100C0F60000069040F26C
:1046D0002000C2F2000007900020C4F20220042152
:1046E0000022FCF787F90A20FCF7A2F804A803A926
:1046F000FFF784FE9DF80C2038A0B42100F0BEF82E
:104700009DF80C00B4285DD104AC20460221FFF7CF
:1047100083FE08AD20462946FFF758FF9DF820008C
:10472000C007F7D10DF1100B584600210024FFF708
:1047300073FE09A95846ADF82440FFF7D1FD40F2B9
:104740000020C0F202100DF10808029058464146C0
:10475000FFF7A2FE0BAD58462946FFF7D5FE9DF8A0
:104760002C00294600F0FE008DF82C005846FFF77B
:10477000EBFE40F210070DF1280AC2F200070FF21B
:10478000800900BF58465146FFF770FD9DF828008C
:104790008007F7D0584641463A46FFF7E5FD3868AE
:1047A000BD68FBF7BAFD064628460C46FBF7B5FD8B
:1047B00041EC100B484632468DED000B234600F0CD
:1047C0005DF8DFE7FEE700BF3131313131313131A2
:1047D0003131313131313131000000004C50533230
:1047E000384446575F49443D307825782C69642E1B
:1047F00077686F616D693D307825780A00000000A8
:104800007072657373757265205B6850615D3A25DF
:10481000362E32662074656D7065726174757265CE
:10482000205B646567435D3A25362E32660D0A00CB
:10483000FBF7FEBF80B584B09C460B464FF47A71FF
:1048400000920291B9211A460123CDF804C0FCF769
:104850007DF9002004B080BD80B584B09C460B4635
:104860004FF47A7100920291B9211A460123CDF8D2
:1048700004C0FCF78BFA002004B080BD0FB4054BD8
:1048800010B503A9044A029800F0DAF810BC5DF8EC
:1048900014FB00004D4200080000002002E008C8A0
:1048A000121F08C1002AFAD170477047002001E0AA
:1048B00001C1121F002AFBD1704700002DE9FF5FE4
:1048C00082B00021DDE90430020DDDF840B0034381
:1048D00018D044F61050A2F2FF324243151411983A
:1048E00001281FD0A5EB0B00401C5FEA000A4FF027
:1048F00000064E4FDFF83891B046504615D5CAF144
:10490000000413E0119801244AA3012801D16FEAA1
:104910000B010298119AC0E90031C0E9024206B0C9
:10492000BDE8F09FCBF10000DFE704460021404ADC
:10493000491842EB0450CDE9001012E0E00707D01F
:1049400032463B4640464946FBF7D6FD80468946FF
:1049500032463B4610461946FBF7CEFD06460F464B
:104960006410002CEAD1DDE90401DDE90023BAF18D
:10497000000F06DAFBF7C0FD42464B46FBF7BCFDD5
:1049800005E0FBF72BFE42464B46FBF727FE0446AD
:104990000E460022284BFBF7A9FE03D84FF0FF304C
:1049A000014607E00022254B20463146FBF7FDFC7F
:1049B000FBF783FE102409E0002C0ADB0A22002307
:1049C000FBF768FC039B30321A55641E50EA010263
:1049D000F2D1641C039AC4F111031444119A012A00
:1049E00003D0012208430DD10AE0084304D000207F
:1049F0004FF0110B119072E7A3EB0B056D1E0DE04C
:104A00005B4504DD4FF0000205F1010504E003DA27
:104A10004FF00002A5F10105002AECD0029811998F
:104A2000C0E90231C0E9004579E700000000144008
:104A30000000F03F300000000000F0430000E03FC5
:104A40002DE9FF4F95B09B468946064600250FE2AB
:104A5000252877D100242746F84A0121059400E053
:104A6000044316F8013F203B01FA03F01042F7D14E
:104A700030782A2811D06FF02F033078A0F130025F
:104A8000092A16D8059A44F0020402EB820203EBCD
:104A900042021044761C0590EFE759F8042B05926A
:104AA000002A03DA504244F40054059044F0020412
:104AB000761C30782E2816D116F8010F44F0040425
:104AC0002A280DD06FF02F023078A0F13003092B87
:104AD00009D807EB870302EB4303C718761CF3E7FB
:104AE00059F8047B761C30786C280FD006DC4C28F3
:104AF00017D068280DD06A2814D104E0742810D08B
:104B00007A280FD10DE044F400140AE044F4801434
:104B100001E044F440147278824202D104F580141A
:104B2000761C761C307866280BD013DC582877D09A
:104B300009DC002875D04528F6D04628F4D047284F
:104B40001AD19DE118E0632835D0642879D0652812
:104B500012D195E1702873D008DC6728F1D069285C
:104B60006FD06E280DD06F2806D1B5E073282CD0F9
:104B7000752875D0782874D05A46179990476D1CBF
:104B800075E1C4F30250022809D003280DD0D9F8EA
:104B9000001004280DD00D6009F1040967E1D9F86F
:104BA0000010EA17C1E90052F6E7D9F800100D80AD
:104BB000F2E70D70F0E719F8041B8DF800100020E3
:104BC0008DF80100EA46012003E059F804AB4FF0EC
:104BD000FF3061074FF0000102D40DE008F1010140
:104BE0008846B9420FDA8045F8DB1AF80810002928
:104BF000F4D108E008F1010188468142FADB1AF895
:104C000008100029F6D105985B46A0EB080721465D
:104C10003846179A00F094FA284400EB080507E09C
:104C20004DE029E10DE01AF8010B5A46179990471B
:104C3000B8F10108F7D25B4621463846179A13E1CE
:104C400042E00A220092C4F302524FF0000A022A04
:104C500008D059F804CB032A4FEAEC710AD00DE0D2
:104C600029E02AE009F1070121F00702F2E802C178
:104C7000914609E00FFA8CFC4FEAEC71042A03D14B
:104C80004FFA8CFC4FEAEC71002907DA0A46002142
:104C9000DCF1000C61EB02012D2202E0220504D5BB
:104CA0002B228DF80420012203E0E20701D020220C
:104CB000F7E7904659E00A2102E010220DE01021AA
:104CC0004FF0000A00910BE010224FF0000A44F070
:104CD00004040827009203E008224FF0000A009223
:104CE000C4F30252022A05D059F804CB0021032A4A
:104CF00008D009E009F1070121F00702F2E802C13A
:104D0000914605E01FFA8CFC042A01D10CF0FF0C3F
:104D10004FF00008220728D5702806D0009B83F0AA
:104D2000100353EA0A0305D00EE040228DF8042058
:104D3000012208E05CEA010206D030228DF804204E
:104D40008DF8050002229046009B83F0080353EA89
:104D50000A030AD15CEA010201D1620705D53022BB
:104D60008DF804204FF001087F1E582804D034A08D
:104D700003900EA802900DE036A0F9E75346604676
:104D8000009AFBF787FA84460398825C0298401EDB
:104D9000029002705CEA0100F0D1029806A9081A9C
:104DA00000F1200A600702D524F4803400E00127D6
:104DB000574502DDA7EB0A0000E0002000EB0A01E6
:104DC000009005984144401A0590E00306D45B46E4
:104DD0002146179A059800F0B3F90544002706E02C
:104DE00001A85A46C05D179990476D1C7F1C474526
:104DF000F6DBE0030CD55B462146179A059800F0D8
:104E00009FF9054404E030205A46179990476D1CDD
:104E10000099481E00900029F5DC08E002980299EC
:104E20005A460078491C0291179990476D1CBAF1B7
:104E30000001AAF1010AF1DC65E100000928010086
:104E40003031323334353637383961626364656600
:104E500000000000303132333435363738394142C2
:104E6000434445460000000000F058F90544761C14
:104E7000307800287FF4ECAD19B02846BDE8F08FFB
:104E8000620700D4062709F1070222F0070CFCE8AC
:104E90000223E14603F000485FEA080C02D00FF25B
:104EA000702C0DE05FEA045C02D50FF2682C07E07D
:104EB0005FEAC47C02D00FF2602C01E0AFF2700C0C
:104EC0004FF0FF3823F00043CDF850C065280CD0D8
:104ED00006DC452809D046281DD047283DD13DE0B5
:104EE000662818D067287ED138E00021112F01DB19
:104EF000112000E0781CCDE9000106A90EA8FFF7FB
:104F0000DDFCDDE90F010E9A03910021009207F10B
:104F1000010A04914DE04FF000400097CDE90110E7
:104F200006A90EA8FFF7CAFCDDE90F0203920E9B4B
:104F300011990022DDF80CA00093049211B9791C9C
:104F400000EB010AB7EB0A0004D4C0F1FF3007F10F
:104F5000010A0490AAEB0700019044E0012F00DA57
:104F600001270021112F01DD112000E03846CDE995
:104F7000000106A90EA8FFF7A1FCDDE90F010E9ABA
:104F80000391002104910092BA4621070CD40399A1
:104F9000514500DA8A46BAF1010F05DD009AAAF1FF
:104FA0000101515C302908D0B84202DA10F1040F37
:104FB00006DA0121CDE9011015E0AAF10101E9E7C6
:104FC000002805DC049901440491AAEB000102E0E9
:104FD000411C514500DD8A460499401A401C01904D
:104FE0004FF000400290200704D40198504501DBA7
:104FF000CDF8048000208DF84F0002980DF14F0786
:10500000B0F1004F25D02B200E9002984FF00208EF
:1050100000280CDA404202902D200E9007E00A2171
:105020000298FBF78DF93031029007F8011DB8F1B5
:105030000001A8F10108F2DC02980028EFD1791EE6
:105040000E980870307800F0200040F0450007F816
:10505000020D12A8C01B00F107081498007800B1D7
:10506000012000EB0A01019801EBE0710598414431
:10507000401A401E0590E00306D45B462146179A6D
:10508000059800F05DF805441498007818B15A4668
:10509000179990476D1CE00324D55B462146179A6B
:1050A000059800F04DF805441CE00498002807DB43
:1050B000DDE90301884203DD0098405C179901E0B7
:1050C000179930205A469047049805F10105401C75
:1050D00004900198401E019004D12E205A46179941
:1050E00090476D1CBAF10001AAF1010ADDDC05E070
:1050F00017F8010B5A46179990476D1CB8F100013B
:10510000A8F10108F4DC5B462146179A0598ABE646
:105110002D0000002B000000200000002DE9F041D0
:10512000044600251E461746880404D405E0394687
:105130002020B0476D1C641EF9D52846BDE8F081DB
:105140002DE9F041044600251E469046C80301D5CE
:10515000302700E02027880404D505E04146384682
:10516000B0476D1C641EF9D52846BDE8F0810000EB
:1051700010B5044601E0FFF769F814F8010B044983
:105180000028F8D1BDE810400A20FFF75FB8000002
:1051900000000020000000000000000001020304E5
:1051A00006070809000000000102030401000200D4
:1051B0000400060008000A000C0010002000400057
:1051C000800000010101010307010000080402043E
:1051D00008010101F8510008000000201000000043
:1051E0009C4800080852000810000020000500003C
:1051F000AC480008000000000000000001000000B2
:08520000100000000090D00333
:040000050800025994
:00000001FF
